:100000000C9472000C9491000C9491000C9491004B
:100010000C9491000C9491000C9491000C9491001C
:100020000C9491000C9491000C9491000C9491000C
:100030000C9491000C9491000C9491000C949100FC
:100040000C9491000C9491000C9491000C949100EC
:100050000C9491000C9491000C9491000C949100DC
:100060000C9491000C9491000C9491000C949100CC
:100070000C9491000C9491000C9491000C949100BC
:100080000C9491000C9491000C9491000C949100AC
:100090000C9491000C9491000C9491000C9491009C
:1000A0000C9491000C9491000C9491000C9491008C
:1000B0000C9491000C9491000C9491000C9491007C
:1000C0000C9491000C9491000C9491000C9491006C
:1000D0000C9491000C9491000C9491000C9491005C
:1000E0000C94910011241FBECFEFD1E2DEBFCDBF33
:1000F00012E0A0E0B2E0ECE0F3E000E00BBF02C0F1
:1001000007900D92A030B107D9F712E0A0E0B2E05D
:1001100001C01D92A530B107E1F70E94A1000C9427
:1001200085010C940000F8948FEF809301011092E8
:100130000201249A2C980E94B30010920402789431
:1001400008950E94930080910402809302010E940E
:100150003B018093040280910402882311F42C98BF
:10016000F2CF2C9AF0CF109204018FE0809305011A
:1001700008958091030180FD03C088E090E0089518
:100180008091030181FD03C084E090E00895809197
:10019000030182FD03C082E090E008958091030195
:1001A00090E023E0969587952A95E1F780959095C4
:1001B0008170907008951F9310E80DC0103279F18E
:1001C000113220F4103109F04EC03BC01034A9F0B8
:1001D000103809F048C080910401806180930401C7
:1001E0000E94B900982F809104018F7E80930401B2
:1001F0009923C9F1892F80683BC0809104018062F6
:10020000809304010E94B900982F809104018F7D92
:1002100080930401992339F1892F806429C080914A
:1002200004018064809304010E94B900982F80919A
:1002300004018F7B809304019923A9F0892F8062A8
:1002400017C0809104018068809304010E94B90066
:10025000982F809104018F7780930401992319F0DE
:10026000892F806105C01695193008F0A7CF80E06E
:1002700090E01F9108950E94DB00282F80910302D7
:10028000813079F0813028F08230A9F08330C9F5CF
:1002900026C02223B1F12093010281E08093030262
:1002A00030C0809101022817F1F482E080930302AC
:1002B0001092020226C090910102291719F01092A3
:1002C000030220C0809102028F5F809302028A3075
:1002D000C0F083E0809303021092020213C0809169
:1002E0000102281719F0109203020BC0809102023C
:1002F0008F5F80930202882321F010920202922FD6
:0C03000001C090E0892F90E00895FFCF2D
:00000001FF
