:100000000C9472000C9491000C9491000C9491004B
:100010000C9491000C9491000C9491000C9491001C
:100020000C9491000C9491000C9491000C9491000C
:100030000C9491000C9491000C9491000C949100FC
:100040000C9491000C9491000C9431020C9491004A
:100050000C9491000C9491000C9491000C949100DC
:100060000C9491000C9491000C9491000C949100CC
:100070000C9491000C94E2010C9491000C9491006A
:100080000C9491000C9491000C9491000C949100AC
:100090000C9491000C9491000C9491000C9491009C
:1000A0000C9491000C9491000C9491000C9491008C
:1000B0000C9491000C9491000C9491000C9491007C
:1000C0000C9491000C9491000C9491000C9491006C
:1000D0000C9491000C9491000C9491000C9491005C
:1000E0000C94910011241FBECFEFD1E2DEBFCDBF33
:1000F00013E0A0E0B2E0EAE5F7E100E00BBF02C0E8
:1001000007900D92AA31B107D9F713E0AAE1B3E045
:1001100001C01D92AE32B107E1F70E94C6020C94F5
:10012000AC0B0C940000ECE7F0E090E4908390813D
:10013000982B9083EAE7F0E098EA908390819660AC
:100140009083EBE7F0E090819560908390B321E09D
:1001500030E002C0220F331F8A95E2F720959223E8
:1001600090BB81B3282321BB0895EF92FF920F9398
:100170001F937B018C0120E030E040E050E00E94C2
:10018000F3078823ECF020E030E040EA50E4C801B7
:10019000B7010E945F0818169CF020E030E040E8AC
:1001A00055E4C801B7010E94090621EE3AE74CE97F
:1001B00050E40E9408070E949508CB019F7002C07E
:1001C00080E090E01F910F91FF90EF900895E7E09D
:1001D000F1E0808180648083E8E0F1E080818064E8
:1001E000808308950F931F93909108019F7B9093B4
:1001F0000801882311F0706801C07F778B011F7B95
:100200001063812F99270E943F03802F0E943F0394
:10021000809108018064809308011F910F910895D7
:10022000109204018FE080930501089580910301ED
:1002300080FD03C088E090E008958091030181FD76
:1002400003C084E090E008958091030182FD03C023
:1002500082E090E008958091030190E023E096957C
:1002600087952A95E1F78095909581709070089513
:100270001F9310E80DC0103279F1113220F41031C3
:1002800009F04EC03BC01034A9F0103809F048C046
:10029000809104018061809304010E941601982FCF
:1002A000809104018F7E809304019923C9F1892FE5
:1002B00080683BC0809104018062809304010E94A9
:1002C0001601982F809104018F7D8093040199235A
:1002D00039F1892F806429C0809104018064809362
:1002E00004010E941601982F809104018F7B809356
:1002F00004019923A9F0892F806217C0809104011D
:100300008068809304010E941601982F8091040157
:100310008F7780930401992319F0892F806105C09C
:100320001695193008F0A7CF80E090E01F9108954E
:100330000E943801282F80911C03813079F0813090
:1003400028F08230A9F08330C9F526C02223B1F10C
:1003500020931A0381E080931C0330C080911A031C
:100360002817F1F482E080931C0310921B0326C02F
:1003700090911A03291719F010921C0320C0809144
:100380001B038F5F80931B038A30C0F083E0809350
:100390001C0310921B0313C080911A03281719F035
:1003A00010921C030BC080911B038F5F80931B0373
:1003B000882321F010921B03922F01C090E0892F17
:1003C00090E008951F920F920FB60F9211242F9371
:1003D0003F934F935F936F937F938F939F93AF93CD
:1003E000BF93EF93FF93EAE7F0E080818061808321
:1003F0002091780030E06091790070E0762F6627D8
:10040000622B732B80E090E00E94E80821EE3AE72F
:100410004CE950E40E94090620E030E040E85AE34D
:100420000E94090660931E0370931F0380932003AC
:1004300090932103E2E0F1E0808190E189278083BD
:10044000FF91EF91BF91AF919F918F917F916F91AC
:100450005F914F913F912F910F900FBE0F901F9082
:1004600018951F920F920FB60F9211242F933F935E
:100470004F935F936F937F938F939F93AF93BF93AC
:10048000EF93FF93109285001092840080912203D5
:100490008F5F80932203809122038A3000F11092B3
:1004A000220381E080931D03609123037091240354
:1004B000809125039091260320E030E040E05FE347
:1004C0000E94DC056093230370932403809325032B
:1004D0009093260380912703815F80932703809167
:1004E000020198E0892780930201FF91EF91BF916B
:1004F000AF919F918F917F916F915F914F913F91BC
:100500002F910F900FBE0F901F901895EF92FF92B2
:100510000F931F93F894E1E0F1E08081886180837C
:10052000E2E0F1E08081877E808385E00E942D03F8
:10053000109227030E94E7000F2EF0E0EF2EF0E06C
:10054000FF2EF0E00F2FF0E01F2FF02DE09223039D
:10055000F092240300932503109326030E94D403F2
:1005600082E00E949300E0921E03F0921F0300932A
:1005700020031093210384E00E94AC031092220315
:1005800078941F910F91FF90EF9008950E9486023A
:1005900060911E0370911F038091200390912103AD
:1005A0000E94FA0380911D03882391F310921D038A
:1005B0006091230370912403809125039091260379
:1005C00020E030E040E050E00E94290887FD10C0A4
:1005D0006091230370912403809125039091260359
:1005E00020E030E040EA50E40E94BD07181664F4B1
:1005F00080E090E0A0E0B0E0809323039093240398
:10060000A0932503B09326038091270380912703AD
:100610006091230370912403809125039091260318
:100620000E94B500909329038093280360912803CA
:100630007091290380E00E94F2008091280390913C
:1006400029036FEF7FE0681B790B81E00E94F200C5
:10065000809127030E943C039BCF279A2F9815BCBB
:1006600016BC90E897BD93E894BD10926E0095B5C6
:100670008770892B85BD089587BD16BC08958EBDF2
:100680000DB407FEFDCF8DB58EB50895289A84B1BF
:10069000876084B98CB580658CBD8CB58F778CBD37
:1006A0000895813039F0813080F0823039F0833024
:1006B00061F408C08CB5837F846009C08CB5837FEA
:1006C000886005C08CB58C6002C08CB5837F8CBD02
:1006D0000895803141F1813138F4843079F08830E7
:1006E00081F0823001F507C08034B1F08038C1F06C
:1006F0008032C9F40DC08CB58C7F06C08CB58C7F60
:1007000015C08CB58C7F81608CBD8DB5816011C0AA
:100710008CB58C7F8260F8CF8CB58C7F826006C0F0
:100720008CB5836003C08CB58C7F81608CBD8DB52A
:100730008E7F8DBD08951F93182F862F95B19E60D3
:1007400095B90E946903812F0E9451030E944603BC
:100750008DB58EB51F910895E1E8F0E0108298E321
:1007600090938B0090E490938A00109280001092F6
:10077000820094E090936F0090818770892B808332
:100780000895482F90E820E030E0892F842311F06D
:100790002A9A01C02A98299A299896952F5F3F4F47
:1007A0002830310591F70895EAE0F1E080818F600B
:1007B0008083EBE0F1E08081807F8083E7E0F1E0FF
:1007C000808188608083E8E0F1E0808188608083B8
:1007D00084B18E6084B92B9A80E180932A03809340
:1007E0002B0380932C0380932D0360E880E00E940C
:1007F0009B0308950F931F93CF93DF9320E030E086
:1008000048EC52E40E9409060E9495088B019C0165
:10081000CB0168EE73E00E944E0B60932D03C8017C
:1008200068EE73E00E944E0B64E670E00E944E0B8F
:1008300060932C03C80164E670E00E944E0B6AE0EE
:1008400070E00E944E0B60932B03C8016AE070E0D9
:100850000E944E0B80932A03C0E0D0E0FE01E65DCB
:10086000FC4FE081F0E0E050FE4F8081C23009F49F
:1008700080680E943F0380910801877F8093080170
:100880008091080188608093080180910B0121E02C
:1008900030E00C2E02C0220F331F0A94E2F7822BA5
:1008A00080930B0183E397E00197F1F780910B01AF
:1008B0002095282320930B012196C430D10571F691
:1008C000DF91CF911F910F910895A0E0B0E0EBE68A
:1008D000F4E00C94770B2C015B01FA01DC019C9194
:1008E000923008F432C1EB018881823008F42CC1C7
:1008F000943071F4843009F028C1F201918189812A
:10090000981709F422C111E1412E12E0512E1DC1A8
:10091000843009F419C18230A9F4923009F015C16C
:10092000CA01A20128E0DA010D90AD01EC010992A3
:10093000CE012150C1F7E5018981E2019981892326
:10094000818300C1923009F4FFC0E201CA80DB80DC
:10095000EB018A819B81E2012C813D814E815F8187
:10096000EB01EC80FD800E811F81B601681B790BC5
:10097000DB0177FF03C0709561957F4F6032710591
:100980000CF05DC01A161B065CF566247724430143
:1009900081E090E0A0E0B0E0062E04C0880F991F2F
:1009A000AA1FBB1F0A94D2F70197A109B1098E2192
:1009B0009F21A023B1230097A105B10529F0B1E043
:1009C0006B2E712C812C912C04C016950795F794F1
:1009D000E7946A95D2F7E628F728082919293BC039
:1009E000AB2BC9F1C60ED71E66247724430181E0E4
:1009F00090E0A0E0B0E0062E04C0880F991FAA1F67
:100A0000BB1F0A94D2F70197A109B109822393234E
:100A1000A423B5230097A105B10529F0A1E06A2E12
:100A2000712C812C912C04C05695479537952795AC
:100A30006A95D2F726293729482959290CC08C15DF
:100A40009D0534F06C0120E030E040E050E003C050
:100A5000EE24FF248701E2019981E501898198173D
:100A600009F443C0992339F0E21AF30A040B150B79
:100A7000A801970104C02E193F09400B510B57FDE7
:100A800008C01182D382C282248335834683578370
:100A90001DC081E08183D382C28288279927DC012F
:100AA000821B930BA40BB50B84839583A683B7831A
:100AB0000DC0220F331F441F551F248335834683E7
:100AC0005783828193810197938382832481358127
:100AD00046815781DA01C9010197A109B1098F5FE8
:100AE0009F4FAF4FBF4328F30BC09183D382C28285
:100AF0002E0D3F1D401F511F24833583468357838E
:100B000083E0808324813581468157815523D4F445
:100B1000C901AA2797FDA095BA2F81709070A07087
:100B2000B0705695479537952795822B932BA42B1C
:100B3000B52B84839583A683B783828193810196A5
:100B4000938382832F0101C02501C201E0E1CDB76B
:100B5000DEB70C94930BA0E2B0E0E1EBF5E00C946F
:100B6000810B69837A838B839C832D833E834F83A0
:100B7000588709E0E02EF12CEC0EFD1EB701CE01E6
:100B800001960E94880A8E010F5E1F4FB801CE01A8
:100B900005960E94880A8A8991E089278A8BAE018E
:100BA000475E5F4FB801C7010E9465040E94A80913
:100BB000E6E0A0960C949D0BA0E2B0E0E2EEF5E03A
:100BC0000C94810B69837A838B839C832D833E8372
:100BD0004F83588789E0E82EF12CEC0EFD1EB701FB
:100BE000CE0101960E94880A8E010F5E1F4FB80148
:100BF000CE0105960E94880AAE01475E5F4FB8019C
:100C0000C7010E9465040E94A809E6E0A0960C9422
:100C10009D0BA0E2B0E0EFE0F6E00C94770B698367
:100C20007A838B839C832D833E834F83588799E0FF
:100C3000E92EF12CEC0EFD1EB701CE0101960E94AB
:100C4000880A8E010F5E1F4FB801CE0105960E94E3
:100C5000880A9985923088F089898230C0F0943072
:100C600019F4823029F009C0843029F4923079F4E3
:100C700061E172E0C6C0923041F420E09A858A8931
:100C8000981321E02A87B701BCC0823041F420E0EC
:100C90009A858A89981321E02A8BB801B2C0CD8445
:100CA000DE84EF84F8880D891E892F89388D882489
:100CB0009924540140E050E060E070E04424552461
:100CC0003201E0E0F0E0C60181709070892BD9F02C
:100CD000800E911EA21EB31EDB01CA01840D951D5C
:100CE000A61DB71D40E050E060E070E08016910660
:100CF000A206B30620F441E050E060E070E0480F47
:100D0000591F6A1F7B1F440C551C661C771C37FF3C
:100D100008C081E090E0A0E0B0E0482A592A6A2AA1
:100D20007B2A3196E032F10549F0000F111F221F96
:100D3000331FF694E794D794C794C5CF8B899C89C9
:100D40002B853C85820F931F02969C8F8B8F1A8E6A
:100D50009A858A89981711F081E08A8F2B8D3C8DB6
:100D600017C0CA0181709070892B61F0B694A79466
:100D70009794879480E090E0A0E0B0E8882A992AD0
:100D8000AA2ABB2A76956795579547952F5F3F4FBF
:100D900077FDE7CFC9010BC0440F551F661F771FB2
:100DA000B7FC4160880C991CAA1CBB1C0197403001
:100DB000A0E05A07A0E06A07A0E47A0768F39C8FD6
:100DC0008B8FDB01CA018F779070A070B070803478
:100DD0009105A105B10561F447FD0AC08114910494
:100DE000A104B10429F0405C5F4F6F4F7F4F407802
:100DF0004D8F5E8F6F8F78A383E0898FBE01675E12
:100E00007F4FCB010E94A809E0E1A0960C94930BC0
:100E1000A8E1B0E0EEE0F7E00C947D0B69837A8303
:100E20008B839C832D833E834F8358878E01075F7E
:100E30001F4FB801CE0101960E94880A81E1E82E79
:100E4000F12CEC0EFD1EB701CE0105960E94880A1A
:100E500039853230F8F02989223010F4B70186C084
:100E60008A859A8989278A87343011F0323029F4AB
:100E7000321781F461E172E079C0243039F41D86C3
:100E80001E861F86188A1C861B8604C0223021F409
:100E900084E08987B8016AC06B857C858B899C89D1
:100EA000681B790B7C876B872D853E854F8558891C
:100EB0008D899E89AF89B88D281739074A075B0746
:100EC00040F4220F331F441F551F615070407C8730
:100ED0006B87A12CB12CC12C10E4D12EEE24FF2461
:100EE000870160E070E0281739074A075B0740F088
:100EF000EA28FB280C291D29281B390B4A0B5B0B00
:100F0000D694C794B794A794220F331F441F551F3C
:100F10006F5F7F4F6F31710531F7D801C7018F7750
:100F20009070A070B07080349105A105B105B9F43E
:100F3000E7FC15C0211531054105510581F080E41C
:100F400090E0A0E0B0E0E80EF91E0A1F1B1F80E849
:100F50009FEFAFEFBFEFE822F9220A231B23ED86B4
:100F6000FE860F87188BBE01675F7F4FCB010E9403
:100F7000A809EAE068960C94990BA8E1B0E0E3ECCC
:100F8000F7E00C94810B69837A838B839C832D8398
:100F90003E834F83588789E0E82EF12CEC0EFD1E2E
:100FA000B701CE0101960E94880A8E010F5E1F4F85
:100FB000B801CE0105960E94880A8985823060F0CA
:100FC0008989823048F0B801C7010E94F80A282FA9
:100FD000332727FD309502C02FEF3FEFC901E6E030
:100FE00068960C949D0BA8E1B0E0E9EFF7E00C9453
:100FF000810B69837A838B839C832D833E834F830C
:10100000588789E0E82EF12CEC0EFD1EB701CE01C9
:1010100001960E94880A8E010F5E1F4FB801CE0113
:1010200005960E94880A8985823060F0898982301D
:1010300048F0B801C7010E94F80A282F332727FD7E
:10104000309502C02FEF3FEFC901E6E068960C949F
:101050009D0BA8E1B0E0EFE2F8E00C94810B69830E
:101060007A838B839C832D833E834F83588789E0CB
:10107000E82EF12CEC0EFD1EB701CE0101960E9468
:10108000880A8E010F5E1F4FB801CE0105960E949F
:10109000880A8985823060F08989823048F0B801F9
:1010A000C7010E94F80A282F332727FD309502C078
:1010B00021E030E0C901E6E068960C949D0BA8E1C0
:1010C000B0E0E5E6F8E00C94810B69837A838B83CA
:1010D0009C832D833E834F83588789E0E82EF12C33
:1010E000EC0EFD1EB701CE0101960E94880A8E010A
:1010F0000F5E1F4FB801CE0105960E94880A8985B0
:10110000823060F08989823048F0B801C7010E94BE
:10111000F80A282F332727FD309502C021E030E060
:10112000C901E6E068960C949D0BACE0B0E0EBE9F9
:10113000F8E00C94850B69837A838B839C83BE01D2
:101140006B5F7F4FCE0101960E94880A8D818230AD
:10115000A9F1823098F1843021F48E81882359F4EA
:101160000FC02F81388537FD29C06E812F313105A1
:1011700064F0662329F020E030E040E050E822C02F
:101180002FEF3FEF4FEF5FE71DC08EE190E0821B36
:10119000930B29853A854B855C8504C05695479508
:1011A000379527958A95D2F7662361F0509540953B
:1011B000309521953F4F4F4F5F4F04C020E030E006
:1011C00040E050E0CA01B901E2E02C960C94A10B7A
:1011D000A8E0B0E0EEEEF8E00C947F0B7B018C0110
:1011E000611571058105910519F482E089835AC062
:1011F00083E089838EE1C82ED12CDC82CB82ED8204
:10120000FE820F831887C801B7010E945B09BC01E9
:101210006150704077FF33C0EE27FF27E61BF70BC6
:1012200020E030E040E050E081E090E0A0E0B0E07D
:101230000E2E04C0880F991FAA1FBB1F0A94D2F755
:101240000197A109B1098E219F21A023B123009705
:10125000A105B10521F021E030E040E050E004C0FC
:1012600016950795F794E794EA95D2F72E293F292A
:10127000402B512B2D833E834F8358870FC0611520
:10128000710581F0062E04C0EE0CFF1C001F111F1B
:101290000A94D2F7ED82FE820F831887C61AD70A06
:1012A000DC82CB821A82CE0101960E94A809E8E076
:1012B00028960C949B0BEF92FF920F931F939B0128
:1012C000AC01203080E0380781E0480780E0580713
:1012D00080F42F3F31054105510509F020F4EE243B
:1012E000FF24870119C068E0E62EF12C012D112D95
:1012F00013C0203080E0380780E0480781E05807BD
:1013000030F490E1E92EF12C012D112D05C088E17A
:10131000E82EF12C012D112D80E290E0A0E0B0E04C
:101320008E199F09A00BB10B04C0569547953795B0
:101330002795EA94D2F7F901E75EFD4F2081821BE1
:101340009109A109B1091F910F91FF90EF900895A4
:101350009F92AF92BF92CF92DF92EF92FF920F9344
:101360001F93EE24FF248701FC01248135814681EF
:10137000578191808081823010F44061A2C0843016
:1013800009F49BC0823029F420E030E040E050E0D6
:1013900005C0211531054105510519F4E0E0F0E0E3
:1013A00092C0828193816FEF823896070CF05AC009
:1013B00062E87FEF681B790B6A3171052CF020E041
:1013C00030E040E050E02AC0AA24BB24650181E05F
:1013D00090E0A0E0B0E0062E04C0880F991FAA1F7D
:1013E000BB1F0A94D2F70197A109B1098223932365
:1013F000A423B5230097A105B10529F071E0A72E1C
:10140000B12CC12CD12C04C0569547953795279502
:101410006A95D2F72A293B294C295D29DA01C901AD
:101420008F779070A070B07080349105A105B105E0
:1014300039F427FF09C0205C3F4F4F4F5F4F04C076
:10144000215C3F4F4F4F5F4F80E090E0203060E0E5
:10145000360760E0460760E4560710F081E090E050
:10146000FC0123C08038910544F5FC01E158FF4F91
:10147000DA01C9018F779070A070B0708034910547
:10148000A105B10539F427FF09C0205C3F4F4F4F3C
:101490005F4F04C0215C3F4F4F4F5F4F57FF05C068
:1014A0005695479537952795319687E056954795F8
:1014B000379527958A95D1F706C020E030E040E0C7
:1014C00050E0EFEFF0E0E22EF32E942F9F77802F85
:1014D0008078892B9E2F9795992797958F77082F3E
:1014E000092B9E2F9695812F8078892B979499248C
:1014F00097948F77182F1929C801B7011F910F9161
:10150000FF90EF90DF90CF90BF90AF909F900895A5
:10151000CF93DF93FC01DB01208131819281492F40
:101520004F7750E0991F9927991F8381E82FEE0F7D
:10153000E92B6E2F70E0881F8827881FED018983B3
:10154000EE2371F5211531054105510511F482E0B5
:101550002FC06E577040FD017383628367E0220FD6
:10156000331F441F551F6A95D1F783E08C930AC03F
:10157000220F331F441F551FED018A819B81019764
:101580009B838A832030E0E03E07E0E04E07E0E402
:101590005E0770F3ED012C833D834E835F8325C08E
:1015A000EF3F79F4211531054105510519F484E027
:1015B0008C931BC044FF03C081E08C9311C01C922C
:1015C0000FC06F577040ED017B836A8383E08C937B
:1015D00087E0220F331F441F551F8A95D1F75064AF
:1015E000FD012483358346835783DF91CF9108958E
:1015F000CF93DF93DC01FB019C91923008F446C04D
:101600008081823008F442C0943049F4ED01698150
:10161000843079F5818190E0861B91093CC084304B
:1016200021F0923031F48230A1F18181882371F56B
:101630002AC0ED0169818230E1F081816817C9F427
:10164000ED012A813B8182819381821793078CF07F
:1016500028173907B4F0ED018C819D81AE81BF81DF
:101660002481358146815781281739074A075B074E
:1016700018F4662341F40AC082179307A407B5073C
:1016800040F4662319F48FEF9FEF05C081E090E0EE
:1016900002C080E090E0DF91CF91089597FB092E82
:1016A00007260AD077FD04D00CD006D000201AF40B
:1016B000709561957F4F0895F6F7909581959F4FAE
:1016C0000895AA1BBB1B51E107C0AA1FBB1FA61789
:1016D000B70710F0A61BB70B881F991F5A95A9F7DB
:1016E00080959095BC01CD0108952F923F924F9225
:1016F0005F926F927F928F929F92AF92BF92CF92A2
:10170000DF92EF92FF920F931F93CF93DF93CDB7AA
:10171000DEB7CA1BDB0B0FB6F894DEBF0FBECDBF22
:1017200009942A88398848885F846E847D848C84F3
:101730009B84AA84B984C884DF80EE80FD800C81FC
:101740001B81AA81B981CE0FD11D0FB6F894DEBFDF
:0A1750000FBECDBFED010895FFCFDD
:10175A003F065B4F666D7D077F6F777C395E7971D7
:10176A000000000000000000000001020203030361
:10177A000304040404040404040505050505050519
:10178A0005050505050505050506060606060606F8
:10179A0006060606060606060606060606060606DF
:1017AA0006060606060606060607070707070707C8
:1017BA0007070707070707070707070707070707AF
:1017CA00070707070707070707070707070707079F
:1017DA00070707070707070707070707070707078F
:1017EA000707070707070707070808080808080878
:1017FA00080808080808080808080808080808085F
:10180A00080808080808080808080808080808084E
:10181A00080808080808080808080808080808083E
:10182A00080808080808080808080808080808082E
:10183A00080808080808080808080808080808081E
:10184A00080808080808080808080808080808080E
:10185A0008080808080808080808080808080808FE
:0A186A00080808080808080808002C
:00000001FF
