:100000000C9472000C9491000C9491000C9491004B
:100010000C9491000C9491000C9491000C9491001C
:100020000C9491000C9491000C9491000C9491000C
:100030000C9491000C9491000C9491000C949100FC
:100040000C9491000C9491000C9491000C949100EC
:100050000C9493000C9491000C9491000C949100DA
:100060000C9491000C9491000C9491000C949100CC
:100070000C9491000C9491000C9491000C949100BC
:100080000C94B8000C9491000C9491000C94910085
:100090000C9491000C9491000C9491000C9491009C
:1000A0000C9491000C9491000C9491000C9491008C
:1000B0000C9491000C9491000C9491000C9491007C
:1000C0000C9491000C9491000C9491000C9491006C
:1000D0000C9491000C9491000C9491000C9491005C
:1000E0000C94910011241FBECFEFD1E2DEBFCDBF33
:1000F00012E0A0E0B2E0E8E4F2E000E00BBF02C0F2
:1001000007900D92A030B107D9F712E0A0E0B2E05D
:1001100001C01D92A330B107E1F70E94D2000C94F8
:1001200023010C9400001F920F920FB60F9211241E
:100130006F937F938F939F93809101028F5F809342
:1001400001028091010260E70E9417019093020270
:1001500080910202882319F481E0809300029F912C
:100160008F917F916F910F900FBE0F901F901895F8
:100170001F920F920FB60F9211248F9381E08093FC
:1001800000028F910F900FBE0F901F901895F8945A
:100190000E94DD0081E00E94EF0084E00E940001E7
:1001A000789408950E94C700809100028823E1F3AB
:1001B000109200020E94E300F7CF8FEF80930101BD
:1001C0001092020108958091020187FD02C08823E8
:1001D00011F481E001C0880F809302010895A1E825
:1001E000B0E01C921092800010928200EFE6F0E0E6
:1001F0009081916090839C918770892B8C93089556
:10020000E1E9F0E0108290E79093990090E89093F4
:1002100098001092900098E090831092920092E0E3
:100220009093710090818770892B80830895991B2A
:1002300079E004C0991F961708F0961B881F7A95DD
:08024000C9F780950895FFCF76
:00000001FF
